:0402C90022DD00FF33
:08000300758901D2A9D2AF22D8
:1002B80053890F438920758BF4758DF4C28FD28EC4
:0102C8002213
:1002A4008F8C8D8AD28CD2A4308DFDC28DC28CC22B
:0402B4008ED2A42220
:02023C00AD070C
:10023E00A905E4FDFCECFF3395E0FEC3EF9404EE5C
:10024E0064809480504D7E007480A804088006CE91
:10025E00A2E713CE13D8F8FFE9FBE4FEEF5BFFEC49
:10026E0025E0FBC374079BFBEFA803088006CEA214
:10027E00E713CE13D8F84205A8047401088002C310
:10028E0033D8FC59FFA803088002C333D8FC4205BB
:05029E000C80A2AF0579
:0102A3002238
:060141008B0D8A0E890FF0
:10014700D2ABD28E7D9A7C007FDF1202A4C2AB7D38
:10015700CD7FEF1202A4E4F510C3E5109404748078
:1001670094805044751101E5116039D2ABD28E7D70
:10017700087C007FFE1202A4C2ABAB0DAA0EA90F2A
:10018700851082758300120114551160067D4C7F1E
:10019700FA80067D3F7C007FFE1202A4E51125E070
:1001A700F51180C3051080B1D2ABD28E7DFC7C00E7
:0701B7007FFD1202A4C2ABA0
:0101BE00221E
:1001BF0078087C007D007BFF7A0279C97E007F047E
:1001CF001200EE1200031202B875B00FAFB0EF6459
:1001DF000F60F67D9A7C007F8F1202A4AFB0EF64A0
:1001EF000F6006E5B0540FF50CE50C640E70047F3C
:1001FF00DC801CE50C640D70047F998012E50C64A3
:10020F000B70047FC18008E50C6407700C7FD2125D
:10021F00023C8F0AE50AF4F50B7B007A007908128D
:0D022F0001417D017C007FFF1202A4809C34
:03001B000202CD11
:0302CD00B2A432A6
:03000B0002001AD6
:01001A0032B3
:0300000002000EED
:0C000E00787FE4F6D8FD7581110201BF77
:10001E00E709F608DFFA8046E709F208DFFA803EC4
:10002E0088828C83E709F0A3DFFA8032E309F608B1
:10003E00DFFA8078E309F208DFFA807088828C8319
:10004E00E309F0A3DFFA806489828A83E0A3F608CD
:10005E00DFFA805889828A83E0A3F208DFFA804CA7
:10006E0080D280FA80C680D4806980F2803380107E
:10007E0080A680EA809A80A880DA80E280CA8033E7
:10008E0089828A83ECFAE493A3C8C582C8CCC5835F
:10009E00CCF0A3C8C582C8CCC583CCDFE9DEE7802F
:1000AE000D89828A83E493A3F608DFF9ECFAA9F0AE
:1000BE00EDFB2289828A83ECFAE0A3C8C582C8CC04
:1000CE00C583CCF0A3C8C582C8CCC583CCDFEADE1D
:1000DE00E880DB89828A83E493A3F208DFF980CC7F
:1000EE0088F0EF60010E4E60C388F0ED2402B40478
:1000FE000050B9F582EB2402B4040050AF2323451F
:06010E00822390006E73D5
:10011400BB010CE58229F582E5833AF583E02250A0
:1001240006E92582F8E622BBFE06E92582F8E222EA
:0D013400E58229F582E5833AF583E4932204
:00000001FF
