:100411003F065B4F666D7D077F6F777C395E797133
:010421007664
:06043900043822DD00FF83
:040422007F017E00D8
:0B042600EF1FAC0670011E4C70F622A8
:1003C900E4FFFEE4FDFC0DBD00010CED64644C701E
:0C03D900F50FBF00010EBE01EABF90E767
:0103E50022F5
:02022C00AD071C
:10022E00A905E4FDFCECFF3395E0FEC3EF9404EE6C
:10023E0064809480504D7E007480A804088006CEA1
:10024E00A2E713CE13D8F8FFE9FBE4FEEF5BFFEC59
:10025E0025E0FBC374079BFBEFA803088006CEA224
:10026E00E713CE13D8F84205A8047401088002C320
:10027E0033D8FC59FFA803088002C333D8FC4205CB
:05028E000C80A2AF0589
:010293002248
:10032C00E4FDEDC39403748094805031ED14600BA4
:10033C0014601024027012D2A28002C2A2D2A3D2E4
:10034C00A48006D2A2C2A3D2A4742E2DF8E6F58006
:0D035C007F647E00120426E4F5800D80C54C
:010369002271
:09000E00D288D2A8D2AFD2B222EE
:08043100758901D2A9D2AF22A6
:1004000053890F438920758BF4758DF4C28FD28E7A
:0104100022C9
:0603E6007D9A7C007F8F70
:1003EC008F8C8D8AD28CD2A4308DFDC28DC28CC2E2
:0403FC008ED2A422D7
:0601A8007B007A007938AB
:0601AE008B098A0A890B8F
:1001B400D2ABD28E7D9A7C007FDF1203ECC2AB7D82
:1001C400CD7FEF1203ECE4F50CC3E50C94047480CA
:1001D40094805044750D01E50D6039D2ABD28E7D0B
:1001E400087C007FFE1203ECC2ABAB09AA0AA90B80
:1001F400850C8275830012039C550D60067D4C7F2F
:10020400FA80067D3F7C007FFE1203ECE50D25E0BD
:10021400F50D80C3050C80B1D2ABD28E7DFC7C0081
:070224007FFD1203ECC2ABE9
:01022B0022B0
:1002940075B00FAFB0EF640F604C1203E6AFB0EF70
:1002A400640F6006E5B0540FF52DE52D640E70045F
:1002B4007FDC801CE52D640D70047F998012E52D90
:1002C400640B70047FC18008E52D6407700C7FD235
:1002D40012022C8F3AE53AF4F53B1201A87D017C19
:0702E400007FFF1203EC2272
:1002EB0075B00FAFB0EF640F60361203E6AFB0EF2F
:1002FB00640F6006E5B0540FF52DE52D640D7014F9
:10030B00AF3812022C8F38E538F4F53985293AE5E8
:10031B003AF4F53B1201A87D017C007FFF1203EC40
:01032B0022AF
:10036A0012000E120431120400AF2912022CEFC43B
:10037A00540F90041193F52EAF2912022CEF540F4B
:10038A0093F52F900421E493F53012032C1202EB1B
:02039A0080D70A
:0300030002001EDA
:10001E00C0E0C0D075D000C000C002C003C004C094
:05002E0005C006C0073B
:100033007521007FBC7E0212042630B2030201093F
:100043007BE87A0320B213D3EB9400EA9400400ACE
:10005300120422EB1B70ED1A80EA20B2030201099D
:100063007A017BF430B213D3EB9400EA9400400A94
:10007300120422EB1B70ED1A80EAE4FDEDC3940435
:10008300748094804003020109750800C3E5089455
:100093000874809480506B7A007B3C20B213D3EBBE
:1000A3009400EA9400400A120422EB1B70ED1A80BC
:1000B300EA7A017BF430B224D3EB9400EA94004053
:1000C3001B7F0A7E001204260521EB1B70011AD345
:1000D300E521941E7480948040DB802A74272DF8D8
:1000E300C000E6C313D000F6C3E5219408748094DE
:1000F30080400874272DF8E64480F6752100050832
:06010300808A0D02007F5E
:10010900D007D006D005D004D003D002D000D0D07B
:03011900D0E03201
:03001B00020006DA
:03000600B2A4326F
:03000B00020009E7
:0100090032C4
:0300000002011CDE
:0C011C00787FE4F6D8FD75813B0201639A
:10039C00BB010CE58229F582E5833AF583E0225016
:1003AC0006E92582F8E622BBFE06E92582F8E22260
:0D03BC00E58229F582E5833AF583E493227A
:1001280002036AE493A3F8E493A34003F68001F280
:1001380008DFF48029E493A3F85407240CC8C333D8
:10014800C4540F4420C8834004F456800146F6DFA7
:10015800E4800B0102040810204080900439E47EFA
:10016800019360BCA3FF543F30E509541FFEE4939C
:10017800A360010ECF54C025E060A840B8E493A363
:10018800FAE493A3F8E493A3C8C582C8CAC583CA8E
:10019800F0A3C8C582C8CAC583CADFE9DEE780BE46
:01043F0000BC
:00000001FF
